:020000040000fa
:080000000002040000000000f2
:020000040000fa
:040008009804000058
:020000040000fa
:04000c00ac04000040
:020000040000fa
:04001000c004000028
:020000040000fa
:04001400d404000010
:020000040000fa
:04001800e8040000f8
:020000040000fa
:04001c0010050000cb
:020000040000fa
:04002000fc040000dc
:020000040000fa
:0400240010050000c3
:020000040000fa
:0400280010050000bf
:020000040000fa
:04002c004803000085
:020000040000fa
:0400300010050000b7
:020000040000fa
:0400340010050000b3
:020000040000fa
:0400380010050000af
:020000040000fa
:04003c0010050000ab
:020000040000fa
:0400400010050000a7
:020000040000fa
:0400440010050000a3
:020000040000fa
:04004800100500009f
:020000040000fa
:04004c00100500009b
:020000040000fa
:040050001005000097
:020000040000fa
:040054001005000093
:020000040000fa
:04005800100500008f
:020000040000fa
:04005c00100500008b
:020000040000fa
:040060001005000087
:020000040000fa
:040064001005000083
:020000040000fa
:04006800100500007f
:020000040000fa
:04006c00100500007b
:020000040000fa
:040070001005000077
:020000040000fa
:040074001005000073
:020000040000fa
:04007800100500006f
:020000040000fa
:04007c00100500006b
:020000040000fa
:040080001005000067
:020000040000fa
:040084001005000063
:020000040000fa
:04008800100500005f
:020000040000fa
:04008c00100500005b
:020000040000fa
:040090001005000057
:020000040000fa
:040094001005000053
:020000040000fa
:04009800100500004f
:020000040000fa
:04009c00100500004b
:020000040000fa
:0400a0001005000047
:020000040000fa
:0400a4001005000043
:020000040000fa
:0400a800100500003f
:020000040000fa
:0400ac00100500003b
:020000040000fa
:0400b0001005000037
:020000040000fa
:0400b4001005000033
:020000040000fa
:0400b800100500002f
:020000040000fa
:0400bc00100500002b
:020000040000fa
:0400c0001005000027
:020000040000fa
:0400c4001005000023
:020000040000fa
:0400c800100500001f
:020000040000fa
:0400cc00100500001b
:020000040000fa
:0400d0001005000017
:020000040000fa
:0400d4001005000013
:020000040000fa
:0400d800100500000f
:020000040000fa
:0400dc00100500000b
:020000040000fa
:0400e0001005000007
:020000040000fa
:0400e4001005000003
:020000040000fa
:0400e80010050000ff
:020000040000fa
:0400ec0010050000fb
:020000040000fa
:0400f00010050000f7
:020000040000fa
:0400f40010050000f3
:020000040000fa
:0400f80010050000ef
:020000040000fa
:0400fc0010050000eb
:020000040000fa
:0401000010050000e6
:020000040000fa
:0401040010050000e2
:020000040000fa
:0401080010050000de
:020000040000fa
:04010c0010050000da
:020000040000fa
:0401100010050000d6
:020000040000fa
:0401140010050000d2
:020000040000fa
:0401180010050000ce
:020000040000fa
:04011c0010050000ca
:020000040000fa
:0401200010050000c6
:020000040000fa
:0401240010050000c2
:020000040000fa
:0401280010050000be
:020000040000fa
:04012c0010050000ba
:020000040000fa
:0401300010050000b6
:020000040000fa
:0401340010050000b2
:020000040000fa
:0401380010050000ae
:020000040000fa
:04013c0010050000aa
:020000040000fa
:0401400010050000a6
:020000040000fa
:0401440010050000a2
:020000040000fa
:04014800100500009e
:020000040000fa
:04014c00100500009a
:020000040000fa
:040150001005000096
:020000040000fa
:040154001005000092
:020000040000fa
:04015800100500008e
:020000040000fa
:04015c00100500008a
:020000040000fa
:040160001005000086
:020000040000fa
:040164001005000082
:020000040000fa
:04016800100500007e
:020000040000fa
:04016c00100500007a
:020000040000fa
:040170001005000076
:020000040000fa
:040174001005000072
:020000040000fa
:04017800100500006e
:020000040000fa
:04017c00100500006a
:020000040000fa
:040180001005000066
:020000040000fa
:040184001005000062
:020000040000fa
:04018800100500005e
:020000040000fa
:04018c00100500005a
:020000040000fa
:040190001005000056
:020000040000fa
:040194001005000052
:020000040000fa
:04019800100500004e
:020000040000fa
:04019c00100500004a
:020000040000fa
:0401a0001005000046
:020000040000fa
:0401a4001005000042
:020000040000fa
:0401a800100500003e
:020000040000fa
:0401ac00100500003a
:020000040000fa
:0401b0001005000036
:020000040000fa
:0401b4001005000032
:020000040000fa
:0401b800100500002e
:020000040000fa
:0401bc00100500002a
:020000040000fa
:0401c0001005000026
:020000040000fa
:0401c4001005000022
:020000040000fa
:0401c800100500001e
:020000040000fa
:0401cc00100500001a
:020000040000fa
:0401d0001005000016
:020000040000fa
:0401d4001203000012
:020000040000fa
:0401d800100500000e
:020000040000fa
:0401dc00100500000a
:020000040000fa
:0401e0001005000006
:020000040000fa
:0401e4001005000002
:020000040000fa
:0401e80010050000fe
:020000040000fa
:0401ec0010050000fa
:020000040000fa
:0401f00010050000f6
:020000040000fa
:0401f40010050000f2
:020000040000fa
:0401f80010050000ee
:020000040000fa
:0401fc0010050000ea
:020000040000fa
:0402000010050000e5
:020000040000fa
:0402040010050000e1
:020000040000fa
:0402080010050000dd
:020000040000fa
:04020c0010050000d9
:020000040000fa
:0402100010050000d5
:020000040000fa
:0402140010050000d1
:020000040000fa
:0402180010050000cd
:020000040000fa
:04021c0010050000c9
:020000040000fa
:0402200010050000c5
:020000040000fa
:0402240010050000c1
:020000040000fa
:0402280010050000bd
:020000040000fa
:04022c0010050000b9
:020000040000fa
:04023000380400008e
:020000040000fa
:04023400680400005a
:020000040000fa
:0402380010050000ad
:020000040000fa
:04023c0010050000a9
:020000040000fa
:0402400010050000a5
:020000040000fa
:0402440010050000a1
:020000040000fa
:04024800100500009d
:020000040000fa
:04024c001005000099
:020000040000fa
:040250001005000095
:020000040000fa
:040254001005000091
:020000040000fa
:04025800100500008d
:020000040000fa
:04025c001005000089
:020000040000fa
:040260001005000085
:020000040000fa
:040264001005000081
:020000040000fa
:04026800100500007d
:020000040000fa
:04026c001005000079
:020000040000fa
:040270001005000075
:020000040000fa
:040274001005000071
:020000040000fa
:04027800100500006d
:020000040000fa
:04027c001005000069
:020000040000fa
:040280001005000065
:020000040000fa
:040284001005000061
:020000040000fa
:04028800100500005d
:020000040000fa
:04028c001005000059
:020000040000fa
:040290001005000055
:020000040000fa
:040294001005000051
:020000040000fa
:04029800100500004d
:020000040000fa
:04029c001005000049
:020000040000fa
:0402a0001005000045
:020000040000fa
:0402a4001005000041
:020000040000fa
:0402a800100500003d
:020000040000fa
:0402ac001005000039
:020000040000fa
:0402b0001005000035
:020000040000fa
:0402b4001005000031
:020000040000fa
:0402b800100500002d
:020000040000fa
:0402bc001005000029
:020000040000fa
:0402c0001005000025
:020000040000fa
:0402c4001005000021
:020000040000fa
:0402c800100500001d
:020000040000fa
:0402cc001005000019
:020000040000fa
:0402d0001005000015
:020000040000fa
:0402d4001005000011
:020000040000fa
:0402d800100500000d
:020000040000fa
:0402dc001005000009
:020000040000fa
:0402e0001005000005
:020000040000fa
:0402e4001005000001
:020000040000fa
:0402e80010050000fd
:020000040000fa
:0402ec0010050000f9
:020000040000fa
:0402f00010050000f5
:020000040000fa
:0402f40010050000f1
:020000040000fa
:0402f80010050000ed
:020000040000fa
:0402fc0010050000e9
:020000040000fa
:0403000010050000e4
:020000040000fa
:0403040010050000e0
:020000040000fa
:0403080010050000dc
:020000040000fa
:04030c0010050000d8
:020000040000fa
:0403100010050000d4
:020000040000fa
:0403140010050000d0
:020000040000fa
:0403180010050000cc
:020000040000fa
:04031c0010050000c8
:020000040000fa
:100400002f0e21000eff21000e01880000000000c9
:10041000000020000000e000020032000001200087
:100420002002880014000700870107000000e00098
:1004300003003a00c0f22000010020000200370053
:100440000000200001002000810f70000100320038
:100450000f000700000020000000e0000200320052
:100460000000020000000000e60e02000000000094
:100470000040da000000fe00200020000000e00044
:1004800002003200100020009001880000000600e9
:10049000a1028800800478000000eb001f003700f4
:1004a000e284440054a0b4009905ba00e2844400f8
:1004b00054a0b4009906ba00e284440054a0b400e9
:1004c0000006eb00476fde00fd07b200ae018800ba
:1004d000636ce10003003a000ad801000000eb0061
:1004e0000e003700606ce10008003a00004deb00a0
:1004f0000a05e800020039003420ec000af0a000f0
:100500008b05e900f9ff3e00040037006168e10057
:10051000010032000086eb000b00070019c7ba008b
:100520001905ba000e04e00003003a000a00e000da
:10053000dbff3a0000000600fe07b200ae028800b2
:100540008a047800f5ff37000cd0a300e20f4d00bd
:100550001c00390089027800354dba000a05e80010
:10056000020039003420ec000af0a0008b05e900fd
:100570000f003200254dba000a05e80002003900dc
:100580003420ec000af0a0008b05e90008003200de
:100590000c00e0000600320015cdba000a05e800a4
:1005a000020039003420ec000af0a0008b05e900bd
:1005b0008984e80054a0b4000b00e000e2ff3a0098
:1005c000000006009902ba00055d78008b05e9007d
:1005d000f7ff3200c82ade00055d78008b05e900d0
:1005e000f3ff32000c00e000f1ff320019ddba0029
:1005f000eeff3700d80704000000000016080400d2
:10060000000000003408040000000000a4080400fa
:1006100000000000ae09040000000000b80904005a
:10062000000000003600f800809fbe00829fbe00e0
:10063000849fbe00869fbe003200f8003400f800a0
:1006400010002000a00188001000200000d0fe0053
:100650000000fa00606180002081880040002000d6
:10066000fa000700092ba8000d68a9000080fa0015
:100670003400f9003200f9004f03be004f02be0003
:100680004f01be004f00be003600f90000400600da
:100690003600f800809fbe00829fbe00849fbe008f
:1006a000869fbe003200f8003400f80010002000e1
:1006b000a00188001000200000d0fe000800fa0011
:1006c00010d0bf000040e80010f0b7009480800018
:1006d000a580800011d0bf000000fb00cf80de00ad
:1006e000040040008580480090808800a180880038
:1006f00010d0bf00e54f500030003400600a800089
:100700008000eb00008fbe00900a80008000eb00ac
:1007100020079800310798002e009000be0090003e
:10072000c000dd000000200020079800310798007d
:100730002e009000be0090001e1f70001e977000db
:100740001070ef00b0808000c1808000d0808800f1
:10075000e180880090808000a1808000e00f500040
:10076000e08f580002003d0067004000e080480034
:100770004d0add004301de0002017200c389de0084
:100780001e00be000000510081805900b08088002a
:10079000c1808800b2808000c3808000d08080004b
:1007a000e18080000000510081805900f0808800c5
:1007b0000181880070002000a400070040808000b4
:1007c0000000e00008003200408080000000e900e6
:1007d00040808800408080000000e00002003a0075
:1007e0001000200099000700508080000000e00009
:1007f00008003200508080000000e900508088002e
:10080000508080000000e00002003a00200020003c
:100810008e000700608080000000e0000a003200c7
:10082000708080000000e900708088007080800087
:100830000000e00004003a006080800070808800c2
:1008400030002000810007000028a9000080fa0085
:100850003400f9003200f9004f03be004f02be0021
:100860004f01be004f00be003600f90000400600f8
:100870003600f800809fbe00829fbe00849fbe00ad
:10088000869fbe003200f8003400f80010002000ff
:10089000a00188001000200000d0fe000000fa0037
:1008a00050002000690007001048a9000080fa00ed
:1008b0003400f9003200f9004f03be004f02be00c1
:1008c0004f01be004f00be003600f9000040060098
:1008d0003600f800809fbe00829fbe00849fbe004d
:1008e000869fbe003200f8003400f800100020009f
:1008f000a00188001000200000d0fe000000fa00d7
:1009000060002000510007001068a9000080fa0074
:100910003400f9003200f9004f03be004f02be0060
:100920004f01be004f00be003600f9000040060037
:100930003200f8003400f800881f7800180020000a
:10094000a80188001800200008d0fe004f0478009d
:100950000000fa00ffff37003200f8003400f80012
:10096000881f780018002000a801880018002000c7
:1009700008d0fe004f0478000000fa00ffff3700a7
:100980003200f8003400f800881f780018002000ba
:10099000a80188001800200008d0fe004f0478004d
:1009a0000000fa00ffff37003200f8003400f800c2
:1009b000881f780018002000a80188001800200077
:1009c00008d0fe004f0478000000fa00ffff370057
:1009d0003200f8003400f800881f7800180020006a
:1009e000a80188001800200008d0fe004f047800fd
:1009f0000000fa00ffff37003200f8003400f80072
:100a0000881f780018002000a80188001800200026
:100a100008d0fe004f0478000000fa00ffff370006
:100a20003200f8003400f800881f78001800200019
:100a3000a80188001800200008d0fe004f047800ac
:0c0a40000000fa00ffff37000000050076
:020000040000fa
:100a4c000600fa00200798000040eb00004f7800e9
:100a5c000040eb001047980010c0b30020479800ee
:100a6c0002d0bf000004e00039003a000100210070
:100a7c009140780011479800160037001e409000f6
:100a8c000080fb00010420008080400060022100f7
:100a9c0000804000104078008080fb002e00900009
:100aac00808f500005003a0010c0b300004f780052
:100abc000040eb00204798000b0037001e409000d0
:100acc000040e800104798001e4090006f40600006
:100adc001047980011002100914078001e409000b2
:100aec0080cf5000e5ff3a002e4090000004e0005b
:100afc001700320001d0bf000081fb002e009000d7
:100b0c008040780060062100000041000148780018
:100b1c0010c0b300004f780001d0bf000040e800c7
:100b2c0001f0b70001d0bf006f40600001f0b700ca
:100b3c000370ef00010021009140780001d0bf004c
:100b4c0080cf500002003a0010c0b30002f0b70092
:100b5c001e4078000080fa00000006000600fa0033
:100b6c000040eb00004f78000040eb00104798006d
:100b7c000000eb00100798003503070003d0bf00fe
:100b8c000004e0001b003a0010c0b300004f7800d6
:100b9c0000d0bf000080fb000104200080804000da
:100bac006002210000804000104078000080fb00b3
:100bbc001007980000d0bf000040e80000f0b7001c
:100bcc0000d0bf006f40600000f0b7000270ef0073
:100bdc00010021009140780001d0bf0080cf50006f
:100bec0002003a0010c0b30003f0b70010c0b3000d
:100bfc00104798001c0307001e4090000004e00002
:100c0c00090032001e0090008002b00080004000fd
:100c1c00600221000080400010007800200798003e
:100c2c002e009000000001001e4078000080fa00a9
:100c3c00000006000400fa00000f7800110798006d
:100c4c00030307009e009000820220001e0041005a
:100c5c000001400060022100000041000108780002
:100c6c00010307000080fa00000006000200fa00f1
:100c7c00f70207000070ef000170ef000270ef0048
:100c8c0010c0b30003f0b7000040eb00004f780039
:100c9c00060037009e80fb006006210000804000ab
:100cac008040eb00014878001e4fe8001e407800a1
:100cbc00ef4f5000f7ff3600eb0207000080fa0000
:100ccc00000006000200fa00e10207000040eb0001
:100cdc00004f7800080037001e80fb00817d20004b
:100cec008002b000000140006002210000004100c1
:100cfc00010878001e4fe8001e407800ef4f5000ae
:100d0c00f5ff3600d80207000080fa00000006004c
:100d1c000600fa00200798000040eb00004f780016
:100d2c000040eb001047980010c0b300204798001b
:100d3c0006d0bf000004e00039003a004100210059
:100d4c009140780011479800160037001e40900023
:100d5c000080fb0001072000808040006002210021
:100d6c0000804000104078008080fb002e00900036
:100d7c00808f500005003a0010c0b300004f78007f
:100d8c000040eb00204798000b0037001e409000fd
:100d9c000040e800104798001e4090006f40600033
:100dac001047980051002100914078001e4090009f
:100dbc0080cf5000e5ff3a002e4090000004e00088
:100dcc001700320005d0bf000081fb002e00900000
:100ddc008040780060092100000041000148780043
:100dec0010c0b300004f780005d0bf000040e800f1
:100dfc0005f0b70005d0bf006f40600005f0b700ec
:100e0c000770ef00410021009140780005d0bf0031
:100e1c0080cf500002003a0010c0b30006f0b700bb
:100e2c001e4078000080fa00000006000600fa0060
:100e3c000040eb00004f78000000eb00100798001a
:100e4c0007d0bf000004e00022003a0010c0b3003d
:100e5c00004f780004d0bf000080fb000107200089
:100e6c00808040006002210000804000104078002b
:100e7c000080fb001007980004d0bf000040e80081
:100e8c0004f0b70004d0bf006f40600004f0b7005e
:100e9c000670ef00410021009140780005d0bf00a2
:100eac0080cf500002003a0010c0b30007f0b7002a
:100ebc001e0090000004b000800040006002210081
:100ecc000080400010007800200798002e00900051
:100edc00000001001e4078000080fa0000000600af
:100eec000400fa00000f7800110798009e00900093
:100efc00020420001e00410000014000600221009d
:100f0c0000004100010878000080fa000000060093
:100f1c000200fa000470ef000570ef000670ef009d
:100f2c0010c0b30007f0b7000040eb00004f780092
:100f3c00060037009e80fb00600921000080400005
:100f4c008040eb00014878001e4fe8001e407800fe
:100f5c00ef4f5000f7ff36000080fa00000006004b
:100f6c000200fa000040eb00004f78000800370048
:100f7c001e80fb00817d20000004b00000014000b9
:100f8c006002210000004100010878001e4fe800bb
:100f9c001e407800ef4f5000f5ff36000080fa003d
:100fac00000006000000fa000080fa0000000600b5
:100fbc000000fa00608120008000780030002000e2
:100fcc001cff0700408320008000780040002000b8
:100fdc0018ff0700408a2000800078005000200095
:100fec0014ff0700e09a20008000780060002000c9
:100ffc0010ff07000080fa00000006000000fa0055
:10100c00e070ef0010c0b300e1f0b700500020001a
:10101c00c3020700092ba8000080fa00000006009c
:10102c000200fa00092ba900090ba80030708000ff
:10103c0011800a0000000000004f78001e4078006c
:10104c000004e00002003a00062ea8000100370060
:10105c00062ea9000080fa00000006000600fa0027
:10106c00881f780022d0bf000084fb006f030700ac
:10107c0008014400610221008100410080087800d1
:10108c0022d0bf000040e80022f0b70022d0bf0001
:10109c007f40600022f0b7006000b8001007980095
:1010ac00210798000040eb00004f78000d0037003e
:1010bc001e80fb0080004000600221000080400088
:1010cc00100078008000eb001e019000ae01900033
:1010dc000200400083804800100798002107980008
:1010ec001e4fe8001e407800ff4f5000f0ff360006
:1010fc001e009000ae0090004b09dd004500de00a4
:10110c0000007100c508de00100798002107980048
:10111c001e019000ae019000107f2f00f1ff2f00f8
:10112c00020040008380480032c4b300dd00070099
:10113c004f0478000080fa00000006000400fa005a
:10114c00f00207003186800080672500808f5000f8
:10115c0002003a0040868000004f780050c5b30072
:10116c009e40780080cf50000400320050c7b3007e
:10117c009e40780080cf500006003a00e0d0bf00bf
:10118c000040e900e0f0b700e0d0bf003c020700ef
:10119c006b00370040c4b3009e40780080cf5000f5
:1011ac000400320040c6b3009e40780080cf50004f
:1011bc0006003a00e0d0bf000040e800e0f0b700c5
:1011cc00e0d0bf002e0207005d00370000c5b30061
:1011dc009e40780080cf50000400320000c7b3005e
:1011ec009e40780080cf500016003a00d01d800041
:1011fc004006b100100798009e009000b0f9200046
:10120c00808f500002003600b0f9200010079800c3
:10121c009e00900030062000808f500002003e009f
:10122c004006200010079800f1ff20001e009000df
:10123c0000805000801f88009e009000d11d880007
:10124c003f003700d0c4b3009e40780080cf5000e0
:10125c0004003200d0c6b3009e40780080cf50000e
:10126c0016003a00d01d80004006b0001007980010
:10127c009e009000b0f92000808f500002003600d4
:10128c00b0f92000100798009e0090003006200056
:10129c00808f500002003e0040062000100798008e
:1012ac00f1ff20001e00900000805000801f88007d
:1012bc009e009000d11d88002100370030c4b3007f
:1012cc009e40780080cf50000400320030c6b3003e
:1012dc009e40780080cf500009003a00f1010700d1
:1012ec00e070ef005221ef004c21ef00809b2000ba
:1012fc0080007800700020004efe070010003700c0
:10130c0060c4b3009e40780080cf500004003200cf
:10131c0060c6b3009e40780080cf500008003a00b1
:10132c00807d2000800078007000200041fe0700c6
:10133c0000802000801f8800f07f2000d01d8800d6
:10134c00100f8000708688000080fa0000000600f4
:10135c000000fa0010c0b300e1f0b7000080fa0002
:10136c00000006000600fa00b2808000c3808000f6
:10137c00f0808000018180000200400083804800e2
:10138c004409dd00cc01de00830171004401dd0065
:10139c00f07f200001002000020040008380480004
:1013ac0010079800210798001e019000ae019000d4
:1013bc00b0f9200001002000800f5100818f5900ee
:1013cc0003003400b0f92000000f78000c00370047
:1013dc001e019000ae01900030062000010020009c
:1013ec00800f5100818f590003003c004006200003
:1013fc00000f7800020037009e009000010f78006b
:10140c00f0ff20001e005000801f88009e00780016
:10141c00d11d88000080fa00000006000800fa00c8
:10142c00e0868000f1868000008fbe00600a80009c
:10143c008000eb00e0868800f1868800900a80002e
:10144c008000eb0020079800310798002e009000d8
:10145c00be009000c000dd000000200020079800b6
:10146c0031079800e0868000f18680000001be0004
:10147c002e009000be009000000071008180710071
:10148c00e0868800f1868800d0868000cf80de0060
:10149c00008fbe00a00a8000d08688000080fa0071
:1014ac00000006000600fa00008fbe0042479800bc
:1014bc00e1d0bf000004e0000c003200e170ef004e
:1014cc0040232100808688001e00be004008de00fc
:1014dc0000007800908688001e007800a0868800a6
:1014ec00d630ef00d830ef00f50107000080fa008d
:1014fc00000006000000fa0001188000f0fc2f002c
:10150c00008060000018880001188000c0ff2f00c8
:10151c0000806000001888000623ef000000210006
:10152c005018880000802000801f8800f07f200069
:10153c00d01d880020032000301e880020032000ce
:10154c00401e880020032000e01f8800200320009c
:10155c00f01f880099e3a90099c3a80099a3a800db
:10156c009963a800c11c800000ff2f000080600060
:10157c00c01c880098c3a900c11c8000f08f2f00ec
:10158c0000806000c01c8800b11c800070fe2f0021
:10159c00008060000030a000b01c880096e3a90019
:1015ac00b11c800080ff2f00008060000020a00094
:1015bc00b01c880097e3a900b11c8000f08f2f00ad
:1015cc0000806000b01c8800f11c8000f0ff280037
:1015dc0000806000f01c88009f03a9009e63a80097
:1015ec009e43a800f11c8000f0fc2f0000806000de
:1015fc00f01c88009e23a8009e03a900a103a9004b
:10160c00a123a900a143a900011d8000f07f2000a7
:10161c0000806000001d8800011d800080ff2f00ed
:10162c0000806000001d8800011d800070fe2f00ee
:10163c00008060000030a000001d8800cfe3a900ee
:10164c00cfc3a800cfa3a800cf63a900711e800050
:10165c0000ff2f00008060003000b300701e880077
:10166c00cec3a900711e8000f08f2f008080600017
:10167c000030200001007000701e8800611e800088
:10168c0070fe2f00008060000030a000601e8800fb
:10169c00cce3a900611e800080ff2f000080600059
:1016ac000020a000601e8800cde3a800611e800011
:1016bc00f08f2f0000806000601e8800a11e80004b
:1016cc00f0ff280000806000a01e8800d503a90050
:1016dc00d463a800d443a800a11e8000f0fc2f0006
:1016ec0000806000a01e8800d423a800d403a900a9
:1016fc000080fa00000006000000fa0097e3a80042
:10170c000080fa00000006000000fa00317c800026
:10171c00f08f2f0000806000307c8800317c8000ce
:10172c0000fc2f00008060000000a000307c8800ce
:10173c00d1072000b0210a00880f0000517c8000e6
:10174c00f0f82f0080806000000520000100700080
:10175c00507c8800517c800080ff2f00008060004e
:10176c000000a000507c88001200200080072000a0
:10177c00a109200053f820008049780081497800a5
:10178c0082497800207c8000000178000200a000d3
:10179c00600420007105200043f820008049780087
:1017ac00814978008249780000000000207c80008c
:1017bc00610060000000e000fcff3a000000000047
:1017cc00217c800000022000008060000000e0000e
:1017dc00fbff3200c1e8a8000000eb00510520001f
:1017ec00b1468800a10a2000b14688000068880034
:1017fc00416c800000fc2f008080600020022000e3
:10180c0001007000406c8800416c8000f00f2c00cf
:10181c00808060000030220001007000406c880065
:10182c0000c2b30020edb70010c2b30021edb70029
:10183c000080200051052000b1468800a10a20003c
:10184c00b1468800006888000080fa00000006009d
:10185c000000fa00c3e8a90000000000000000002e
:10186c000080fa00000006000000fa00c3e8a8009f
:10187c0000000000000000000080fa0000000600dc
:10188c000000fa0051588000f00f2c00008060001e
:10189c000080a0005058880051588000f0ff2300b1
:1018ac0000806000505888002158800000f82f00fc
:1018bc000080600020588800058ba90005eba9006a
:1018cc0005cba90041588000f0ff2100008060008a
:1018dc00405888004158800000fc2f0000806000b8
:1018ec000040a0004058880002eba900115880006d
:1018fc00000620000100700010588800140ba9008d
:10190c008100200090210a00060b0000f20ba900b8
:10191c00d20ba900815c800000fe2f0000806000cb
:10192c000000a000805c88000080fa000000060027
:10193c000000fa001160800000f02000010070002f
:10194c001060880002eca90001aba80001eba80014
:10195c0000eca800000000000160800000002800de
:10196c00008060000000e000fbff32000aeba800e2
:10197c000080fa00000006000000fa00220ba8000c
:10198c00a1438000f0ff28000080600000e0a00070
:10199c00a04388002d68a8000080fa000000060013
:1019ac000000fa002430ef002270ef000080fa00f3
:1019bc00000006000000fa00010a8000c0ff2f00a2
:1019cc0000806000000a88004061a9004041a90025
:1019dc00010a8000f0cf2f0000806000000a880010
:1019ec00010a8000f0f82f0000806000000a8800d7
:1019fc00010a8000f03f2e0000806000000a880081
:101a0c0041a1a80045c1a90044e1a90044c1a90015
:101a1c00210a8000f09f2f0000806000200a8800bf
:101a2c0045e1a9004481a90044a1a900210a800034
:101a3c00f07f2c0000806000200a88004501a8007f
:101a4c004601a9004841a9004801a9004981a90003
:101a5c0048c1a9004941a9004901a9004881a90030
:101a6c005221ef004c21ef000080fa00000006002c
:101a7c000000fa0041e1a8000080fa000000060016
:101a8c000200fa00004f78002028a9001e417800bf
:101a9c0011012100824878002028a8000080fa005b
:101aac00000006000000fa002028a9001070ef00ca
:101abc001230ef001430ef001170ef001630ef0011
:101acc001830ef001a30ef001c30ef001e30ef0022
:101adc002030ef002028a8000080fa00000006004b
:101aec000200fa00000f78002028a9009e00780060
:101afc00418088002028a8000080fa000000060021
:101b0c000200fa00000f78002028a9009e0078003f
:101b1c00518088002028a8000080fa0000000600f0
:101b2c000200fa00000f78002028a9009e0078001f
:101b3c00718088009e007800618088002028a800b1
:101b4c000080fa00000006000000fa000108800086
:101b5c00f0fc2f00008060000040a000000888000e
:101b6c000021a80001088000f0cf2f000080600049
:101b7c000080a0000008880000e1a9000181a900f4
:101b8c0001a1a8000041a900a086210040088800fe
:101b9c000080fa00000006000000fa0001e1a80035
:101bac000080fa00000006000000fa000830ef0088
:101bbc000a30ef000e30ef000c30ef001070ef0029
:101bcc001230ef001430ef001170ef001630ef0000
:101bdc001830ef001a30ef001c30ef001e30ef0011
:101bec002030ef000080fa00000006000000fa0030
:101bfc0001428000f0f82f00008060000060a0001f
:101c0c00004288002028a8000080fa00000006008e
:101c1c000000fa00910e8000f03f2f000080600061
:101c2c00900e8800d321a900d301a900d2e1a9000c
:101c3c00fb61a900fb41a900fb21a900fb01a90044
:101c4c00fa61a900fa41a900fa21a900fa01a90038
:101c5c000080fa00000006000000fa00fbe1a8007a
:101c6c00fae1a8000080fa00000006000000fa006b
:101c7c0001448000f0f82f00008060000060a0009c
:101c8c00004488003028a80001448000f08f2f0009
:101c9c000080600000a0a000004488003048a8002c
:101cac0001448000f0ff28000080600000e0a000ec
:101cbc00004488003068a8000080fa00000006008c
:101ccc000000fa00c00e8000620060000000e0001e
:101cdc000a003a0080868000200f880090868000e1
:101cec00300f8800a0868000400f8800b0868000ee
:101cfc00500f8800c0868000600f88000080fa00ba
:101d0c00000006000000fa00c00e800061006000b8
:101d1c000000e00008003200d00e80003086880001
:101d2c00e00e800040868800f00e8000508688000f
:101d3c00000f8000608688000080fa00000006001a
:101d4c000000fa0040002000007088001c2eef00fc
:101d5c000080eb00107088000080eb00f0708800b1
:101d6c00062eef00222eef00082eef00242eef009f
:101d7c000a2eef00262eef000c2eef00282eef007f
:101d8c000feea9002beea900102eef002c2eef0069
:101d9c00142eef00302eef00260ea800262ea800e1
:101dac00022ea9001f0ea9001f2ea9001f4ea9006c
:101dbc001f6ea900062ea9000080fa000000060084
:101dcc000000fa0050fe0700a8fb070050fc0700bb
:101ddc00bcfb070062fc0700d9ff07008cff070063
:101dec009dff0700a1ff0700c2fd070042fe070090
:101dfc00f0fe07001eff0700e9fe0700a0fe07002b
:101e0c00cbfe0700dcfe070067ff07004eff070054
:101e1c0061ff070075ff070065fc070077fc0700f2
:101e2c004efb070001fc0700fdff37000200fa0023
:101e3c002d68a90021818000010f78002d68a80071
:0c1e4c001e0078000080fa000000060074
:020000040000fa
:101e5800da100000080000008000000000100000f8
:0c1e6800da000000800000000000000014
:00000001FF
